S0150000537465726F776E696B5F4350502E7372656307
S11300000C9432000C945A000C94572A0C945A0005
S11300100C945A000C945A000C945A000C945A00F4
S11300200C945A000C945A000C945A000C945A00E4
S11300300C945A000C941E020C94EB010C945A007C
S11300400C945A000C945A000C945A000C945A00C4
S11300500C945A0044215E21782181218A21932124
S1130060A6216F2A11241FBECFE5D8E0DEBFCDBF85
S113007014E0A0E6B0E0ECE3F1E602C005900D92D6
S1130080A430B107D9F725E0A4E0B4E001C01D9283
S1130090A93EB207E1F710E0C4E6D0E004C022971D
S11300A0FE010E94B32CC236D107C9F70E94662A0A
S11300B00C949C300C940000AE98662389F0AD98A3
S11300C0EFECF7E03197F1F700C000008BBBAF987D
S11300D08FEC97E00197F1F700C00000AF9A089504
S11300E0AD9AEECF8FEF8ABB8BBB80EE84BB85BB12
S11300F061E08FE30E945C008FE493EC0197F1F7D9
S113010000C0000061E08FE30E945C008FE493EC88
S11301100197F1F700C0000061E08FE30E945C00EA
S11301208FE493EC0197F1F700C0000061E088E3ED
S11301300E945C0061E08CE00E945C0061E081E070
S11301400E945C0087E893E10197F1F700C000008A
S113015061E08EE00E945C0061E08FE00E945C0040
S113016061E086E00E945C00089590E4699F800D40
S1130170112461E080680E945C000895CF93DF93AE
S1130180EC0160E089910E945C0088818111F9CFC3
S1130190DF91CF91089584EA86BF06B607FEFDCFAE
S11301A081B1887F883009F081B1089584E986BFE0
S11301B006B604FCFDCF81B1089583B984E886BFF7
S11301C006B607FEFDCF81B1887F883129F081B161
S11301D0887F883209F081B1089520E4829FC001AC
S11301E01124846886BF06B607FEFDCF81B1887FDF
S11301F0803509F081B183B10895CF93DF93D82F6F
S1130200C62F0E94CB0080EA0E94DD008D2F0E9441
S1130210DD008C2F0E94DD000E94D60087E99AE35E
S11302200197F1F700C00000DF91CF910895CF93BB
S1130230C82F0E94CB0080EA0E94DD008C2F0E9410
S1130240DD000E94CB0081EA0E94DD0080E00E9474
S1130250ED00C82F0E94D6008C2FCF910895FC0189
S1130260ED5BFF4F1182108232961182108221E4DD
S113027030E0FC0131832083E95BFF4F118210825F
S11302800895FC01EB5BFF4F20813181FC0140812B
S1130290518124173507ACF4A9014F5F5F4FED5B23
S11302A0FF4F0190F081E02D4E175F07C9F0FC016C
S11302B0EB5BFF4F51834083FC01E20FF31F62832A
S11302C00895FC01ED5BFF4F20813181232B41F028
S11302D0FC016283EB5BFF4F21E030E0318320833C
S11302E00895FC01ED5BFF4F2081318132964081FE
S11302F0518124173507C9F0FC014081518124172D
S1130300350724F0ED5BFF4F11821082FC01ED5B99
S1130310FF4F20813181A9014F5F5F4F518340839B
S1130320FC01E20FF31F8281089580E00895FC012F
S1130330ED5BFF4F2081318132964081518124173A
S11303403507C9F0FC01408151812417350724F099
S1130350ED5BFF4F11821082FC01ED5BFF4F2081AA
S11303603181A9014F5F5F4F51834083FC01E20F4C
S1130370F31F82818CB9089510BC8CE089B986E89A
S113038080BD88E18AB90895EF92FF920F931F937D
S1130390CF93DF93FC0101900020E9F731977F01AF
S11303A0E81AF90A1E141F0474F48C01C0E0D0E0AA
S11303B0F80161918F018AE895E00E94410121963C
S11303C0EC16FD06A9F7559ADF91CF911F910F9175
S11303D0FF90EF9008951F920F920FB60F92112481
S11303E02F933F934F935F936F937F938F939F9339
S11303F0AF93BF93EF93FF932091CD053091CE053A
S11304008091CF059091D0052817390729F08AE803
S113041095E00E94970101C05598FF91EF91BF911B
S1130420AF919F918F917F916F915F914F913F9188
S11304302F910F900FBE0F901F9018951F920F923F
S11304400FB60F9211242F933F934F935F936F93A3
S11304507F938F939F93AF93BF93EF93FF936CB16D
S113046081E495E00E944101FF91EF91BF91AF912A
S11304709F918F917F916F915F914F913F912F91B8
S11304800F900FBE0F901F9018958F929F92AF926E
S1130490BF92CF92DF92EF92FF920F931F93CF936D
S11304A0DF93CDB7DEB7FC0172836183348323838A
S11304B05683458310870783F286E186B486A38634
S11304C0D686C586908A878614A213A216A215A280
S11304D010A617A215AADF91CF911F910F91FF903B
S11304E0EF90DF90CF90BF90AF909F908F90089542
S11304F0FC0181E080838D9A8F9ABB9A1CBE1BBC41
S11305001ABC13BC12A611A614A613A616A615A6E9
S11305108FB581688FBD8EB58B608EBD83B78B66BA
S113052083BF85B58C6685BD0895FC01708F678B8C
S1130530528F418F348F238F81A592A5681B790B2D
S113054070AB67A783A594A5481B590B52AB41AB6D
S113055085A596A5281B390B34AB23AB16A215A28F
S113056014A213A210A617A221A132A1818D928DEB
S113057028173907F1F081A992A91816190664F40D
S113058027A130A543A554A5420F531F52A341A34D
S11305902F5F3F4F30A727A399235CF487A190A531
S11305A023A534A5280F391F32A321A3019790A7AF
S11305B087A3258D368D8789908D28173907F1F00B
S11305C087A590A91816190664F423A134A141A59E
S11305D052A5420F531F568F458F2F5F3F4F34A3B1
S11305E023A399235CF483A194A121A532A5280F08
S11305F0391F368F258F019794A383A3278D30A1AC
S1130600838D948D28173907B1F183A994A91816FD
S1130610190664F425A136A145A556A5420F531F1A
S113062050A3478F2F5F3F4F36A325A399231CF573
S113063085A196A125A536A5280F391F30A3278F9C
S1130640019796A385A317C021A132A1418D528D94
S11306502417350709F088CF478D50A1638D748D19
S11306604617570709F080CF92A781A734A723A77D
S113067056A745A7089581A18CBF878D90A19BBDE6
S11306808ABD858D83BD87E893E10197F1F700C0AA
S1130690000081A18CBF878D90A19BBD8ABD858DF3
S11306A083BD87E893E10197F1F700C00000858DD1
S11306B0968D2789308D8217930709F055CFC4CFC3
S11306C0FC01108220E030E040E050E060E070E0A7
S11306D00E9495028FB58E778FBD8EB5847F8EBDB7
S11306E083B7847983BF85B5837985BD8D988F98C9
S11306F0BB9808955F926F927F928F929F92AF9270
S1130700BF92CF92DF92EF92FF920F931F93CF93FA
S1130710DF93CDB7DEB760970FB6F894DEBF0FBE98
S1130720CDBF8C01962E0E94282D0F2EFDE6EF2EB4
S1130730F02D9C01E29EC001E39E900D1124AC01BA
S1130740475A5F4F9A01ADE8B2E80E94B72C880F70
S1130750892F881F990B91950F2EFBEFFF2EF02DFB
S1130760F89E9001F99E300D1124421B530BF801A1
S1130770528B418B0E94282D9C01E29EC001E39E76
S1130780900D1124AC01475A5F4F9A01ADE8B2E8CD
S11307900E94B72C880F892F881F990B9195F89E7A
S11307A09001F99E300D1124421B530BF801568B16
S11307B0458B0E94282D9C01E29EC001E39E900D72
S11307C01124AC01475A5F4F9A01ADE8B2E80E9488
S11307D0B72C880F892F881F990B9195F89E90014B
S11307E0F99E300D1124CA01821B930BF801948BDE
S11307F0838B41895289508F478B928F818F2589B2
S11308003689348F238F61A572A5461B570B50ABD5
S113081047A743A554A5841B950B92AB81AB85A533
S113082096A5281B390B34AB23AB16A215A214A230
S113083013A210A617A26894772471F8812C0F2EA6
S1130840F9E6AF2EF0E0BF2EF02D9E012F5F3F4F53
S11308506901522E6D2CF80121A132A1818D928D56
S113086028173907F9F081A992A91816190664F412
S113087027A130A543A554A5420F531F52A341A35A
S11308802F5F3F4F30A727A3992364F4F80187A172
S113089090A523A534A5280F391F32A321A30197BE
S11308A090A787A3F801258D368D8789908D281709
S11308B03907F9F087A590A91816190664F423A13D
S11308C034A141A552A5420F531F568F458F2F5F68
S11308D03F4F34A323A3992364F4F80183A194A183
S11308E021A532A5280F391F368F258F019794A390
S11308F083A3F801278D30A1838D948D28173907A0
S113090009F485C083A994A91816190664F425A1CD
S113091036A145A556A5420F531F50A3478F2F5FFD
S11309203F4F36A325A399230CF071C0F80185A18C
S113093096A125A536A5280F391F30A3278F019727
S113094096A385A364C0992061F1F801868D8F93E5
S1130950858D8F9382898F9381898F9380A18F93C3
S1130960878D8F9386898F9385898F9382A18F93A7
S113097081A18F9384898F9383898F93BF92AF9240
S1130980DF92CF920E94672D61E080E00E94B50063
S1130990852D962D0E94BE000FB6F894DEBF0FBEC3
S11309A0CDBFF80181A18CBF278D30A13BBD2ABDED
S11309B0858D83BD87E893E10197F1F700C00000BE
S11309C091E0E91AF108E114F10409F0BCCFF8014F
S11309D0858D968D2789308D8217930709F03BCF3B
S11309E021A132A1418D528D2417350709F033CF4F
S11309F0478D50A1638D748D4617570709F02BCF8F
S1130A0092A781A734A723A756A745A703C0E72C1D
S1130A10F82C99CF60960FB6F894DEBF0FBECDBF09
S1130A20DF91CF911F910F91FF90EF90DF90CF90C6
S1130A30BF90AF909F908F907F906F905F9008953C
S1130A400F931F93CF93DF93EC0129A53AA58F89C8
S1130A50988D2817390709F08FC02BA53CA5898DDF
S1130A609A8D2817390709F087C02DA53EA58B8DCF
S1130A709C8D2817390709F07FC00E94282D0DE6A8
S1130A809C01029FC001039F900D1124AC01475AA1
S1130A905F4F9A01ADE8B2E80E94B72C880F892F06
S1130AA0881F990B91951BEF189F9001199F300D8A
S1130AB01124421B530B5A8B498B0E94282D9C01F5
S1130AC0029FC001039F900D1124AC01475A5F4F50
S1130AD09A01ADE8B2E80E94B72C880F892F881FCD
S1130AE0990B9195189F9001199F300D1124421B69
S1130AF0530B5E8B4D8B0E94282D9C01029FC001DD
S1130B00039F900D1124AC01475A5F4F9A01ADE841
S1130B10B2E80E94B72C880F892F881F990B9195F2
S1130B20189F9001199F300D1124CA01821B930B49
S1130B309C8B8B8B49895A89588F4F8B9A8F898FBD
S1130B402D893E893C8F2B8F69A57AA5461B570BAF
S1130B5058AB4FA74BA55CA5841B950B9AAB89ABEF
S1130B608DA59EA5281B390B3CAB2BAB1EA21DA249
S1130B701CA21BA218A61FA229A13AA1898D9A8D95
S1130B8028173907F1F089A99AA91816190664F4E7
S1130B902FA138A54BA55CA5420F531F5AA349A307
S1130BA02F5F3F4F38A72FA399235CF48FA198A5FB
S1130BB02BA53CA5280F391F3AA329A3019798A771
S1130BC08FA32D8D3E8D8F89988D28173907F1F0CD
S1130BD08FA598A91816190664F42BA13CA149A560
S1130BE05AA5420F531F5E8F4D8F2F5F3F4F3CA37B
S1130BF02BA399235CF48BA19CA129A53AA5280FCA
S1130C00391F3E8F2D8F01979CA38BA32F8D38A165
S1130C108B8D9C8D28173907F1F08BA99CA9181688
S1130C20190664F42DA13EA14DA55EA5420F531FE4
S1130C3058A34F8F2F5F3F4F3EA32DA399235CF4FE
S1130C408DA19EA12DA53EA5280F391F38A32F8F56
S1130C5001979EA38DA389A18CBF8F8D98A19BBD65
S1130C608ABD8D8D83BD8D8D9E8D2F89388D821784
S1130C709307A1F429A13AA1498D5A8D2417350768
S1130C8069F44F8D58A16B8D7C8D4617570731F44D
S1130C909AA789A73CA72BA75EA74DA7DF91CF9161
S1130CA01F910F910895CF92DF92EF92FF920F93CD
S1130CB01F93CF93DF93EC018DA9882309F452C0CD
S1130CC024E6269F6001279FD00C1124C40ED51E54
S1130CD089819A81289F8001299F100D11248D817B
S1130CE09E81080F191F8B819C81289F7001299F69
S1130CF0F00C11248F819885E80EF91E0E151F053E
S1130D00B4F4C016D10684F0CE14DF046CF48881E8
S1130D10811103C0CE010E947802CE010E942005F9
S1130D20E016F1066CF01EC0CE010E946003E016CE
S1130D30F106C4F4C016D1061CF4CE14DF047CF40E
S1130D408881811103C0CE010E947802CE010E94E5
S1130D502005C016D10634F4CE14DF041CF0CE01F5
S1130D600E946003DF91CF911F910F91FF90EF904C
S1130D70DF90CF900895A49AAC9889EF90E0019702
S1130D80F1F700C0000089EF90E00197F1F700C08F
S1130D900000AC9AA49898E29A95F1F79C990EC039
S1130DA089EF90E00197F1F700C0000089EF90E02F
S1130DB00197F1F700C0000081E0089580E00895F4
S1130DC0AC98A49A92E09A95F1F700C08111AC9A7C
S1130DD080E58A95F1F7A4980895AC98A49A84E0E4
S1130DE08A95F1F7A49894E09A95F1F783B399E47E
S1130DF09A95F1F70000829581700895FF920F9300
S1130E001F93CF93DF93F82EC0E0D0E001E010E011
S1130E10C8010C2E02C0880F991F0A94E2F78F2193
S1130E200E94E00682E08A95F1F700C02196C8305E
S1130E30D10571F7DF91CF911F910F91FF90089524
S1130E40FF920F931F93CF93DF93C0E0D0E0F12C78
S1130E5001E010E00E94ED06882341F098010C2E79
S1130E6002C0220F331F0A94E2F7F22A2196C830F7
S1130E70D10581F78F2DDF91CF911F910F91FF90B5
S1130E800895DC01D9961D921D921D921C92DC9747
S1130E9081E08C9311968C93119712961C92129761
S1130EA0FD01FD9610821182128213823496108203
S1130EB01182128213823896118210823296118224
S1130EC01082369751834083329631832083E62FF4
S1130ED0F72F139620E030E081918D932F5F3F4FE1
S1130EE028303105C9F70895FB01DC01139620E091
S1130EF030E081918D932F5F3F4F28303105C9F742
S1130F0008950E94BB068CEC0E94FE0684E40E94B5
S1130F10FE0608957F928F929F92AF92BF92CF92D6
S1130F20DF92EF92FF920F931F93CF93DF93EC0125
S1130F30FC01E35BFF4F8081882309F4A3C18A810C
S1130F40882309F49FC10E94BB0685E50E94FE0622
S1130F507E0183E0E80EF11C00E010E0F7018191CE
S1130F607F010E94FE060F5F1F4F08301105B1F785
S1130F708EEB0E94FE060E9420077E01F9E4EF0E2C
S1130F80F11C90E0F701918380830E942007782E62
S1130F90082F10E0FE01E55BFF4F11830083F7018A
S1130FA0E080F180FFEFEF16F10441F40F3F1105EB
S1130FB029F4C25BDF4F81E0888364C1FE01E25BF8
S1130FC0FF4F10828881882309F473C01882C801F6
S1130FD0880F892F881F990B9195892BB9F1CC24FF
S1130FE0CA94D12CB6016E197F0980E090E00E946A
S1130FF0842B4B015C01FE01FD9660837183828327
S11310009383B601601B710B80E090E00E94842BF7
S1131010FE01EF5BFF4F608371838283938320E043
S113102030E040E853E40E943A2C9B01AC01C50136
S1131030B4010E94F02A20E030E040E85DE30E9421
S11310403A2C69AF7AAF8BAF9CAF30C0B70180E068
S113105090E00E94842B4B015C01FE01FD966083AD
S1131060718382839383672D70E080E090E00E9417
S1131070842BFE01EF5BFF4F608371838283938334
S113108020E030E040E853E40E943A2C9B01AC019C
S1131090C501B4010E94F02A20E030E040E85DE39D
S11310A00E943A2C69AF7AAF8BAF9CAF88818111D3
S11310B0E5C0C801880F892F881F990B9195892B4A
S11310C0B9F1AA24AA94B12CB5016E197F0980E064
S11310D090E00E94842B6B017C01FE01FD966083ED
S11310E0718382839383B501601B710B80E090E070
S11310F00E94842BFE01EF5BFF4F60837183828328
S1131100938320E030E040E853E40E943A2C9B01B2
S1131110AC01C701B6010E94F02A20E030E040E8AB
S11311205DE30E943A2C69AF7AAF8BAF9CAFA6C047
S1131130B70180E090E00E94842B6B017C01FE01EA
S1131140FD966083718382839383672D70E080E0D2
S113115090E00E94842BFE01EF5BFF4F608371835C
S11311608283938320E030E040E853E40E943A2CE9
S11311709B01AC01C701B6010E94F02A20E030E0D7
S113118040E85DE30E943A2C69AF7AAF8BAF9CAF25
S113119075C08A81882371F1C9ACDAACEBACFCACC4
S11311A020E030E040EA52E4C701B6010E94542B2B
S11311B0882304F520E030E040EA52ECC701B60190
S11311C00E94362C1816B4F420E030E0A901C701BF
S11311D0B6010E94542B882369F0FE01ED5AFF4F9B
S11311E0C082D182E282F3823497C082D182E282C9
S11311F0F38219828A81882309F444C0C9ACDAAC29
S1131200EBACFCAC20E030E040EA52E4C701B601AC
S11312100E94542B8823B4F520E030E040EA52ECDD
S1131220C701B6010E94362C181664F5FE01ED5A6A
S1131230FF4F2081318142815381C701B6010E9451
S1131240362C18163CF4FE01ED5AFF4FC082D182B1
S1131250E282F382FE01E15BFF4F20813181428112
S11312605381C701B6010E94542B88235CF4C15BEF
S1131270DF4FC882D982EA82FB8204C0898181114E
S113128088CFB8CFDF91CF911F910F91FF90EF904E
S1131290DF90CF90BF90AF909F908F907F900895F4
S11312A08F929F92AF92BF92CF92DF92EF92FF9272
S11312B00F931F93CF93DF9380913405909135055D
S11312C0892B09F08CC00E94BB06813079F0109202
S11312D03705109236051092350510923405109298
S11312E033051092320580E090E090C080EF0E94B8
S11312F0FE06BB24B394C0E0D0E0C12CD12C00E0A6
S113130010E0AA24A394912C0E94ED06882EE82EC6
S1131310F12C0E94ED06282F30E081E0E816F1045C
S113132021F42130310541F546C0E216F30621F5DA
S11313308091360590913705081719074CF4FE0182
S1131340E85CFA4F80818B218A2C59F4892C09C0DE
S113135080913605909137058A2C0817190709F0F2
S1131360892C811009C0093011050CF047C0109375
S113137033050093320542C081E0881207C0FE01A4
S1131380E85CFA4F80818B29808308C0FE01E85C09
S1131390FA4F80819B2D909589238083882D0E940C
S11313A0E0060F5F1F4FBB0C11F42196BA2CC83016
S11313B0D1050CF4A9CF003411058CF0D092370577
S11313C0C09236058091360590913705892BC1F47A
S11313D081E090E0909335058093340511C010921C
S11313E03705109236051092350510923405109287
S11313F033051092320580E090E008C06801C6CF42
S113140080913805882359F381E090E0DF91CF91F2
S11314101F910F91FF90EF90DF90CF90BF90AF900E
S11314209F908F900895839B05C080914005811102
S113143014C004C080914005811108C0839908C07C
S113144081E080934005839BFCCF04C080E003C00F
S113145080E001C081E090E0089510924005EECF55
S1131460849B05C080914005811114C004C0809103
S11314704005811108C0849908C081E0809340052B
S1131480849BFCCF04C080E003C080E001C081E005
S113149090E0089510924005EECF829B05C08091A4
S11314A04005811114C004C080914005811108C019
S11314B0829908C081E080934005829BFCCF04C0E0
S11314C080E003C080E001C081E090E008951092C4
S11314D04005EECFCF93DF93EC0160E080E00E9403
S11314E0B5008EE790E00E94BE008DA9882359F0D4
S11314F061E080E00E94B50088E890E00E94BE00B0
S11315008DA9811108C061E080E00E94B50089E9DD
S113151090E00E94BE000E94300A892B21F40E94B0
S11315204D0A892BC9F09DA981E089278DAB8823B9
S113153059F061E080E00E94B50088E890E00E94E4
S1131540BE008DA9811108C061E080E00E94B50051
S113155089E990E00E94BE00DF91CF910895CF9277
S1131560DF92EF92FF920F931F93CF93DF936C015F
S11315708B01EA0179010E94300A892B11F0CE0D0A
S1131580DF1D0E944D0A892B11F0CE19DF090C17BB
S11315901D0724F0CC15DD051CF003C0E60101C0D5
S11315A0E801CE01DF91CF911F910F91FF90EF9051
S11315B0DF90CF9008958F929F92AF92BF92CF9277
S11315C0DF92EF92FF920F931F93CF93DF93CDB7E8
S11315D0DEB760970FB6F894DEBF0FBECDBF8C01A7
S11315E0CC24C394D12C0F2EFAEA8F2EF0E09F2E38
S11315F0F02DCE0101967C010F2EFDEBAF2EF0E015
S1131600BF2EF02D0E94130A892B39F09FEFC91ABF
S1131610D90A61E081E00E945C00E2E0CE16D104C8
S113162009F45EC02CF421E0C216D10461F03FC17C
S113163083E0C816D10409F4A0C094E0C916D1040B
S113164009F4E8C034C161E080E00E94B500F8010B
S113165080898F9387858F9384858F9383858F93D8
S113166086858F9385858F9382858F9381858F93CC
S11316709F928F92FF92EF920E94672DC7010E9462
S1131680BE00F8014181528121E030E067E170E061
S113169080E090E00E94AF0AF80181839283208564
S11316A02F9327812F9324812F9323812F93268196
S11316B02F9325812F939F938F93BF92AF92FF9285
S11316C0EF920E94672D60E080E00E94B500C701A0
S11316D00E94BE000FB6F894DEBF0FBECDBF92CFFE
S11316E061E080E00E94B500F80180898F938785CE
S11316F08F9384858F9383858F9386858F93858538
S11317008F9382858F9381858F939F928F92FF927F
S1131710EF920E94672DC7010E94BE00F801458127
S1131720568121E030E06BE370E080E090E00E94BD
S1131730AF0AF8018583968320852F9327812F9301
S113174024812F9323812F939F938F9382818F934F
S113175081818F93BF92AF92FF92EF920E94672D87
S113176060E080E00E94B500C7010E94BE000FB691
S1131770F894DEBF0FBECDBF45CF61E080E00E948C
S1131780B500F80180898F9387858F9384858F9323
S113179083858F9386858F9385858F9382858F9399
S11317A081858F939F928F92FF92EF920E94672D73
S11317B0C7010E94BE00F8014381548121E030E05A
S11317C067E170E080E090E00E94AF0AF801838353
S11317D0948320852F9327812F939F938F938681C2
S11317E08F9385818F9382818F9381818F93BF9211
S11317F0AF92FF92EF920E94672D60E080E00E941A
S1131800B500C7010E94BE000FB6F894DEBF0FBE3C
S1131810CDBFF8CE61E080E00E94B500F801808978
S11318208F9387858F9384858F9383858F93868504
S11318308F9385858F9382858F9381858F939F92D4
S11318408F92FF92EF920E94672DC7010E94BE0003
S1131850F8014781508521E030E06BE370E080E0DF
S113186090E00E94AF0AF801878390879F938F933B
S113187084818F9383818F9386818F9385818F93C6
S113188082818F9381818F93BF92AF92FF92EF9267
S11318900E94672D60E080E00E94B500C7010E94AD
S11318A0BE000FB6F894DEBF0FBECDBFABCE95E041
S11318B0C916D10409F0A6CE61E081E00E945C0063
S11318C061E080E00E94B500F80180898F938785EC
S11318D08F9384858F9383858F9386858F93858556
S11318E08F9382858F9381858F938AEA90E09F936B
S11318F08F93CE0101967C01FF928F930E94672DF6
S1131900C7010E94BE00F80180858F9387818F9361
S113191084818F9383818F9386818F9385818F9325
S113192082818F9381818F938DEB90E09F938F932E
S1131930FF92EF920E94672D60E080E00E94B50064
S1131940C7010E94BE00FFEF2EE984E2F15020405F
S11319508040E1F700C0000061E081E00E945C008B
S11319600FB6F894DEBF0FBECDBF60960FB6F894E5
S1131970DEBF0FBECDBFDF91CF911F910F91FF90BE
S1131980EF90DF90CF90BF90AF909F908F9008958D
S11319908F929F92AF92BF92CF92DF92EF92FF927B
S11319A00F931F93CF93DF93CDB7DEB760970FB636
S11319B0F894DEBF0FBECDBF8C01CC24C394D12CD0
S11319C00F2EF0ED8F2EF0E09F2EF02DCE0101961C
S11319D07C010F2EF7EEAF2EF0E0BF2EF02D0E940B
S11319E0130A892B39F09FEFC91AD90A61E081E003
S11319F00E945C00E2E0CE16D10409F460C02CF42D
S1131A0021E0C216D10461F047C183E0C816D104B5
S1131A1009F4A4C094E0C916D10409F4EEC03CC191
S1131A2061E080E00E94B500F80180898F9387858A
S1131A308F9384858F9383858F9386858F938585F4
S1131A408F9382858F9381858F939F928F92FF923C
S1131A50EF920E94672DC7010E94BE00F8014185E4
S1131A60528521E030E067E170E080E090E00E9480
S1131A70AF0AF8019287818780858F9387818F933E
S1131A8084818F9383818F9386818F9385818F93B4
S1131A9082818F9381818F93BF92AF92FF92EF9255
S1131AA00E94672D60E080E00E94B500C7010E949B
S1131AB0BE000FB6F894DEBF0FBECDBF90CF61E07D
S1131AC080E00E94B500F80180898F9387858F9309
S1131AD084858F9383858F9386858F9385858F9354
S1131AE082858F9381858F939F928F92FF92EF923D
S1131AF00E94672DC7010E94BE00F80145855685E6
S1131B0021E030E06BE370E080E090E00E94AF0AF7
S1131B10F8019687858780858F9387818F93848149
S1131B208F9383818F9386818F9385818F93828115
S1131B308F9381818F93BF92AF92FF92EF920E9415
S1131B40672D60E080E00E94B500C7010E94BE00DE
S1131B500FB6F894DEBF0FBECDBF41CF61E080E089
S1131B600E94B500F80180898F9387858F938485BF
S1131B708F9383858F9386858F9385858F938285B5
S1131B808F9381858F939F928F92FF92EF920E9401
S1131B90672DC7010E94BE00F8014385548521E0EA
S1131BA030E067E170E080E090E00E94AF0AF80165
S1131BB09487838780858F9387818F9384818F9384
S1131BC083818F9386818F9385818F9382818F9375
S1131BD081818F93BF92AF92FF92EF920E94672D03
S1131BE060E080E00E94B500C7010E94BE000FB60D
S1131BF0F894DEBF0FBECDBFF2CE61E080E00E945C
S1131C00B500F80180898F9387858F9384858F939E
S1131C1083858F9386858F9385858F9382858F9314
S1131C2081858F939F928F92FF92EF920E94672DEE
S1131C30C7010E94BE00F8014785508921E030E0C9
S1131C406BE370E080E090E00E94AF0AF801908BB3
S1131C50878780858F9387818F9384818F938381F6
S1131C608F9386818F9385818F9382818F938181D6
S1131C708F93BF92AF92FF92EF920E94672D60E024
S1131C8080E00E94B500C7010E94BE000FB6F89420
S1131C90DEBF0FBECDBFA3CE95E0C916D10409F0B7
S1131CA09ECE61E081E00E945C0061E080E00E94E1
S1131CB0B500F80180898F9387858F9384858F93EE
S1131CC083858F9386858F9385858F9382858F9364
S1131CD081858F9380ED90E09F938F93CE01019641
S1131CE07C01FF928F930E94672DC7010E94BE0062
S1131CF0F80180858F9387818F9384818F9383816B
S1131D008F9386818F9385818F9382818F93818135
S1131D108F9387EE90E09F938F93FF92EF920E94B0
S1131D20672D60E080E00E94B500C7010E94BE00FC
S1131D30FFEF2EE984E2F15020408040E1F700C03B
S1131D40000061E081E00E945C000FB6F894DEBF01
S1131D500FBECDBF60960FB6F894DEBF0FBECDBFE9
S1131D60DF91CF911F910F91FF90EF90DF90CF9073
S1131D70BF90AF909F908F9008959F92AF92BF9223
S1131D80CF92DF92EF92FF920F931F93CF93DF9343
S1131D90CDB7DEB760970FB6F894DEBF0FBECDBFE8
S1131DA06C01FC018789908D92A781A7818D928D0A
S1131DB094A783A7838D948D96A785A701E010E04F
S1131DC00F2EF4E69F2EF02D0F2EF2E0AF2EF1E051
S1131DD0BF2EF02DCE0101967C010E94130A892B9F
S1131DE031F00F5F1F4F61E081E00E945C00023020
S1131DF0110509F43FC00330110509F472C0013024
S1131E00110509F0AEC060E080E00E94B5008EEFDD
S1131E1090E00E94BE0043B550E025E030E06FEF53
S1131E2070E080E090E00E94AF0A83BD9927F6013C
S1131E30908F878B83B593B51F929F93989EC00113
S1131E4011246FEF70E00E949D2C7F936F93BF92DB
S1131E50AF92FF92EF920E94672D61E080E00E94B2
S1131E60B500C7010E94BE000FB6F894DEBF0FBED6
S1131E70CDBFB3CF60E080E00E94B5008CE091E07C
S1131E800E94BE004CB750E025E030E06FEF70E0F8
S1131E9080E090E00E94AF0A8CBF9927F601928FF0
S1131EA0818F8CB79CB71F929F93989EC001112479
S1131EB06FEF70E00E949D2C7F936F93BF92AF925F
S1131EC0FF92EF920E94672D61E080E00E94B500CE
S1131ED0C7010E94BE000FB6F894DEBF0FBECDBF8F
S1131EE07CCF60E080E00E94B50081E191E00E9437
S1131EF0BE004AB55BB525E030E06FEF70E080E0EE
S1131F0090E00E94AF0A9BBD8ABDF601948F838F37
S1131F104AB55BB58AB59BB59F938F93949E900108
S1131F20959E300D1124A1E8B0E80E94B72C880FCB
S1131F30892F881F990B91959F938F93BF92AF928E
S1131F40FF92EF920E94672D61E080E00E94B5004D
S1131F50C7010E94BE000FB6F894DEBF0FBECDBF0E
S1131F603CCF0430110509F038CFF601238D348DB0
S1131F70418D528D6789708DC6010E94950261E082
S1131F8081E00E945C008AB59BB53CB723B59F9362
S1131F908F931F923F931F922F9387E191E09F931A
S1131FA08F938E010F5F1F4F1F930F930E94672D16
S1131FB060E080E00E94B500C8010E94BE00FFEF0F
S1131FC029E688E1F15020408040E1F700C000009C
S1131FD061E081E00E945C000FB6F894DEBF0FBEA2
S1131FE0CDBF60960FB6F894DEBF0FBECDBFDF91B4
S1131FF0CF911F910F91FF90EF90DF90CF90BF9002
S1132000AF909F900895CF92DF92EF92FF920F933B
S11320101F93CF93DF93FC0160837183A7B381E0A7
S113202090E0EC0102C0CC0FDD1F6A95E2F7BE011F
S11320306A2B67BB538342831583048337832683C8
S1132040F186E086D386C286DF91CF911F910F91EE
S1132050FF90EF90DF90CF90089548B321E030E0F7
S1132060B901FC01008002C0660F771F0A94E2F7F1
S1132070CB018095842388BB089548B321E030E0E8
S1132080B901FC01008002C0660F771F0A94E2F7D1
S1132090CB01842B88BB089526B326B330E0A90175
S11320A0FC01008002C0559547950A94E2F7CA01E5
S11320B0817008958F929F92AF92BF92CF92DF92D8
S11320C0EF92FF920F931F93CF93DF93EC018B0159
S11320D07A018A859B850297E9F524E6269F4001CB
S11320E0279F900C1124840E951E8A819B81289F22
S11320F06001299FD00C11248E819F81C80ED91EA6
S11321008C819D81289F5001299FB00C11248885C2
S11321109985A80EB91ECA14DB0484F48C149D049A
S113212054F08A149B043CF4CE010E943D10AC147C
S1132130BD047CF10FC0CE010E942D10AC14BD046F
S11321404CF48C149D042CF58A149B0434F1CE01B8
S11321500E942D108A859B85019719F58A819B81A0
S11321608017910741F48E819F818E159F0519F484
S1132170CE010E943D108C819D818017910789F4C6
S1132180888599858E159F0561F4CE010E942D10D6
S113219008C0CE010E943D10DDCFCE010E943D104B
S11321A0D9CFDF91CF911F910F91FF90EF90DF90E6
S11321B0CF90BF90AF909F908F9008952F923F92B1
S11321C04F925F926F927F928F929F92AF92BF9243
S11321D0CF92DF92EF92FF920F931F93CF93DF93EF
S11321E0CDB7DEB760970FB6F894DEBF0FBECDBF94
S11321F08C01262E372EC12CD12C0F2EF5E38F2ED9
S1132200F1E09F2EF02DCE0101967C010F2EFEEE03
S1132210AF2EF0E0BF2EF02D0F2EF0E46F2EF1E084
S11322207F2EF02D0F2EFDE44F2EF1E05F2EF02DCA
S11322300E94130A892B39F09FEFC91AD90A61E069
S113224081E00E945C00A2E0CA16D10409F453C0E4
S11322502CF4E1E0CE16D10461F00DC1F3E0CF1609
S1132260D10409F488C024E0C216D10409F4C3C01F
S113227002C13F922F92A9E2B1E0BF93AF93FF92C4
S1132280EF920E94672D60E080E00E94B500C701D4
S11322900E94BE00D80112964D915C91139721E0E3
S11322A030E067E170E080E090E00E94AF0AF8015E
S11322B08283938321852F9320852F9325812F93C8
S11322C024812F9327812F9326812F939F938F937C
S11322D0BF92AF92FF92EF920E94672D61E080E07F
S11322E00E94B500C7010E94BE000FB6F894DEBF7D
S11322F00FBECDBF9DCF3F922F929F928F92FF92A0
S1132300EF920E94672D60E080E00E94B500C70153
S11323100E94BE00D80116964D915C91179721E05A
S113232030E067E170E080E090E00E94AF0AF801DD
S11323308683978321852F9320852F9325812F933F
S113234024812F939F938F9383818F9382818F9383
S1132350BF92AF92FF92EF920E94672D61E080E0FE
S11323600E94B500C7010E94BE000FB6F894DEBFFC
S11323700FBECDBF5DCF3F922F927F926F92FF929F
S1132380EF920E94672D60E080E00E94B500C701D3
S11323900E94BE00D80114964D915C91159721E0DE
S11323A030E067E170E080E090E00E94AF0AF8015D
S11323B08483958321852F9320852F939F938F93D7
S11323C087818F9386818F9383818F9382818F936B
S11323D0BF92AF92FF92EF920E94672D61E080E07E
S11323E00E94B500C7010E94BE000FB6F894DEBF7C
S11323F00FBECDBF1DCF3F922F925F924F92FF929F
S1132400EF920E94672D60E080E00E94B500C70152
S11324100E94BE00D80118964D915C91199721E055
S113242030E067E170E080E090E00E94AF0AF801DC
S1132430808791879F938F9385818F9384818F93D6
S113244087818F9386818F9383818F9382818F93EA
S1132450BF92AF92FF92EF920E94672D61E080E0FD
S11324600E94B500C7010E94BE000FB6F894DEBFFB
S11324700FBECDBFDDCE95E0C916D10409F0D8CE8C
S113248061E081E00E945C00D80119968C91199753
S11324908F9318968C9118978F9315968C91159706
S11324A08F9314968C9114978F9317968C911797FA
S11324B08F9316968C9116978F9313968C911397EE
S11324C08F9312968C918F938EEE90E09F938F93BF
S11324D08E010F5F1F4F1F930F930E94672D60E0C3
S11324E080E00E94B500C8010E94BE00BFEFE9E68B
S11324F0F8E1B150E040F040E1F700C0000061E0D5
S113250081E00E945C000FB6F894DEBF0FBECDBF21
S113251060960FB6F894DEBF0FBECDBFDF91CF91AA
S11325201F910F91FF90EF90DF90CF90BF90AF90ED
S11325309F908F907F906F905F904F903F902F90DF
S11325400895CF92DF92EF92FF920F931F93CF9350
S1132550DF93EA0120E030E048EC52E40E943A2C98
S11325600E94582B6B017C019B013695279536956B
S1132570279536952795A5ECB0E20E94B72CFC016F
S1132580F295E295EF70EF27FF70EF2728EE33E026
S1132590E29FC001E39F900DF29F900D1124F6017C
S11325A0E81BF90BCE1ADF0A9F013695279536955D
S11325B02795ABE7B4E10E94B72CAC01569547953B
S11325C024E6249FC001259F900D1124AF01481BD0
S11325D0590BE41BF50B9A01ADECBCEC0E94B72C33
S11325E08C01169507951695079516950795C801BC
S11325F0880F991F000F111F000F111F000F111FCB
S1132600080F191FCA01801B910B8C01481B590B21
S11326109601369527953695279536952795A5ECF9
S1132620B0E20E94B72C929582958F7089279F7093
S11326308927805D88839F01369527953695279550
S1132640ABE7B4E10E94B72C96958795805D8983AA
S11326508EE28A839A01ADECBCEC0E94B72C96956D
S113266087959695879596958795805D8B83005D74
S11326700C831D82DF91CF911F910F91FF90EF90FA
S1132680DF90CF900895EF92FF920F931F93CF9313
S1132690DF93EC01FC01E25BFF4F8081811177C085
S11326A08A81882309F473C031978081882309F4CF
S11326B060C0329780819181880F892F881F990B80
S11326C09195892B59F17E018BE1E80EF11C69ADDE
S11326D07AAD8BAD9CADA7010E94A1128E01055F5E
S11326E01F4FFF92EF9289E591E09F938F931F9381
S11326F00F930E94672DFE01EB5BFF4FC95BDF4F19
S1132700608188810E94B500C8010E94BE000F90BC
S11327100F900F900F900F900F9046C07E018BE1A9
S1132720E80EF11C69AD7AAD8BAD9CADA7010E949A
S1132730A1128E01055F1F4FFF92EF928FE591E08A
S11327409F938F931F930F930E94672DFE01EB5B62
S1132750FF4FC95BDF4F608188810E94B500C801CB
S11327600E94BE000F900F900F900F900F900F904B
S11327701BC0FE01EB5BFF4FC95BDF4F60818881AB
S11327800E94B50085E691E00E94BE000DC0FE01E6
S1132790EB5BFF4FC95BDF4F608188810E94B5000E
S11327A08EE691E00E94BE00DF91CF911F910F91C0
S11327B0FF90EF900895CF92DF92EF92FF920F93E4
S11327C01F93CF93DF93EC017C018FE2E80EF11CA1
S11327D06E0193E5C90ED11CF6016081718182817D
S11327E09381A7010E94A1128E010B5D1F4FFE0170
S11327F0E15BFF4F6081718182819381A8010E9416
S1132800A11220E030E0A901F6016081718182818A
S113281093810E94542B882384F4FF92EF9287E7DC
S113282091E09F938F93FF92EF920E94672D0F90F8
S11328300F900F900F900F900F9020E030E0A901BF
S1132840FE01E15BFF4F60817181828193810E946F
S1132850542B882384F41F930F9387E791E09F936D
S11328608F931F930F930E94672D0F900F900F90DB
S11328700F900F900F906E01FBE0CF0ED11CFF92D2
S1132880EF921F930F938BE791E09F938F93DF92C7
S1132890CF920E94672DFE01EB5BFF4FC95BDF4FB8
S11328A0608188810E94B500C6010E94BE00C601F5
S11328B00E94C4018DB79EB708960FB6F8949EBFC8
S11328C00FBE8DBFDF91CF911F910F91FF90EF90BD
S11328D0DF90CF900895982F92959F70990F292F8C
S11328E0220F220F920F8F70890F0895CF93DF93D9
S11328F0EC0184E00E9417010E946B1490E099831C
S11329008883DF91CF910895CF93DF93EC0183E027
S11329100E9417010E946B1490E09B838A83DF91CD
S1132920CF910895CF93DF93EC0182E00E941701C9
S11329300E946B1490E09D838C83DF91CF91089566
S1132940EF92FF920F931F93CF93DF93CDB7DEB730
S11329502A970FB6F894DEBF0FBECDBF8C01FC01E1
S1132960738762875587448782E00E9417010E941B
S11329706B1490E0F8019583848383E00E9417012F
S11329800E946B1490E0F8019383828384E00E9498
S113299017010E946B14282F30E0F8013183208343
S11329A095819F9394819F9393819F9392819F9309
S11329B01F928F9385E891E09F938F93CE010196A8
S11329C07C01FF928F930E94672DF80164858285B4
S11329D00E94B500C7010E94BE000FB6F894DEBF86
S11329E00FBECDBF2A960FB6F894DEBF0FBECDBF83
S11329F0DF91CF911F910F91FF90EF900895CF93A6
S1132A00DF93EC0182E00E9417010E946B1490E0B6
S1132A109D838C832E813F818217930729F09F83A6
S1132A208E8381E090E002C080E090E0DF91CF915E
S1132A3008959DEC899F912D1124969596959695D0
S1132A40292F220F322F330F330F230F821B20E144
S1132A50929F800D11240895EF92FF920F931F937C
S1132A60CF93DF93EC01E42EF52E022F132F683160
S1132A7071051CF4772324F005C060E070E002C007
S1132A8067E170E0862F0E941915E82FF0E0F987BE
S1132A90E887682F84E00E94FD006E2D7F2D6C3343
S1132AA0710514F06BE370E0CB01992314F480E01A
S1132AB090E00E941915482F50E059874887682FE5
S1132AC083E00E94FD00402F512F4C33510514F038
S1132AD04BE350E0CA01992314F480E090E00E9493
S1132AE01915282F30E039872887682F82E00E9443
S1132AF0FD00DF91CF911F910F91FF90EF9008950A
S1132B00AF92BF92CF92DF92EF92FF920F931F93F7
S1132B10CF93DF93CDB7DEB760970FB6F894DEBFDF
S1132B200FBECDBF8C0182E00E9417010E946B147E
S1132B3090E0F8019583848383E00E9417010E944A
S1132B406B1490E0F8019383828384E00E94170160
S1132B500E946B1490E0F8019183808361E081E02E
S1132B600E945C00EE24E394F12C0F2EF5EAAF2EC4
S1132B70F1E0BF2EF02DCE0101966C010E94130AE4
S1132B80892B39F09FEFE91AF90A61E081E00E948C
S1132B905C00E2E0EE16F10409F440C0F3E0EF1645
S1132BA0F10409F471C081E0E816F10409F0A2C04F
S1132BB060E080E00E94B50082E991E00E94BE00DE
S1132BC0F80185818F9384818F9383818F93828190
S1132BD08F9381818F9380818F93BF92AF92DF9285
S1132BE0CF920E94672DF8014081518121E030E0AD
S1132BF067E170E080E090E00E94AF0AF801918301
S1132C00808361E080E00E94B500C6010E94BE009E
S1132C100FB6F894DEBF0FBECDBFB0CF60E080E04A
S1132C200E94B50085EB91E00E94BE00F801858109
S1132C308F9384818F9383818F9382818F938181FA
S1132C408F9380818F93BF92AF92DF92CF920E9435
S1132C50672DF8014281538121E030E06BE370E09D
S1132C6080E090E00E94AF0AF8019383828361E0E0
S1132C7080E00E94B500C6010E94BE000FB6F89421
S1132C80DEBF0FBECDBF7ACF60E080E00E94B5000A
S1132C9088EC91E00E94BE00F80185818F938481C5
S1132CA08F9383818F9382818F9381818F9380818E
S1132CB08F93BF92AF92DF92CF920E94672DF8015B
S1132CC04481558121E030E06BE370E080E090E0E6
S1132CD00E94AF0AF8019583848361E080E00E943A
S1132CE0B500C6010E94BE000FB6F894DEBF0FBE49
S1132CF0CDBF44CF94E0E916F10409F03FCFF801C9
S1132D00248135814281538160817181C8010E948F
S1132D102C1560960FB6F894DEBF0FBECDBFDF91C1
S1132D20CF911F910F91FF90EF90DF90CF90BF90C4
S1132D30AF900895AF92BF92CF92DF92EF92FF923D
S1132D400F931F93CF93DF93C0912405D091250552
S1132D5061E081E00E945C000F2EF4E2AF2EF5E00A
S1132D60BF2EF02D0F2EF8E1CF2EF5E0DF2EF02D43
S1132D700F2EFCE0EF2EF5E0FF2EF02D00E015E025
S1132D8040C021E030E0AE0163E070E080E090E01C
S1132D900E94AF0AEC0160E080E00E94B5008EE77B
S1132DA090E00E94BE00C230D10549F461E080E0A9
S1132DB00E94B5008BED91E00E94BE0016C0C130A8
S1132DC0D10549F461E080E00E94B5008CEE91E009
S1132DD00E94BE000AC0209741F461E080E00E9496
S1132DE0B50089E990E00E94BE00F501D183C0835B
S1132DF0F601D183C083F701D183C083F801D18365
S1132E00C0830E94130A892B09F4BBCF61E081E0DF
S1132E100E945C00DF91CF911F910F91FF90EF9082
S1132E20DF90CF90BF90AF9008953F924F925F9202
S1132E306F927F928F929F92AF92BF92CF92DF92C6
S1132E40EF92FF920F931F93CF93DF93CDB7DEB72B
S1132E5060970FB6F894DEBF0FBECDBF01E010E05F
S1132E600F2EF6E18F2EF5E09F2EF02D0F2EF2E1BE
S1132E70AF2EF5E0BF2EF02D0F2EF4E16F2EF5E00E
S1132E807F2EF02D0F2EF0E14F2EF5E05F2EF02D6A
S1132E900F2EFEEECF2EF0E0DF2EF02D9E012F5FE1
S1132EA03F4F790121E030E0A80165E070E080E067
S1132EB090E00E94AF0A8C01019733243394049765
S1132EC008F0312C0230110509F450C024F401300B
S1132ED0110551F006C10330110509F481C0043015
S1132EE0110509F4BFC0FDC060E080E00E94B50098
S1132EF08DEF91E00E94BE0061E080E00E94B50089
S1132F00E2E2F5E081818F9380818F93EEE1F5E039
S1132F1081818F9380818F93E0E2F5E081818F93AB
S1132F2080818F93ECE1F5E081818F9380818F9391
S1132F30DF92CF92FF92EF920E94672DC7010E9409
S1132F40BE000E94130A0FB6F894DEBF0FBECDBFB9
S1132F50892B09F4C6C061E080E00E94B5006BE0F3
S1132F6072E08AE195E00E94DE10BBC060E080E080
S1132F700E94B5008EE092E00E94BE0061E080E015
S1132F800E94B500F40181818F9380818F93F501B4
S1132F9081818F9380818F93F30181818F938081CD
S1132FA08F93F20181818F9380818F93DF92CF92EF
S1132FB0FF92EF920E94672DC7010E94BE000E94FB
S1132FC0130A0FB6F894DEBF0FBECDBF892B09F4E8
S1132FD088C068E072E08EE095E00E94DE1081C057
S1132FE060E080E00E94B5008CE192E00E94BE00A7
S1132FF061E080E00E94B50080910B058F93EAE0C8
S1133000F5E080818F93809107058F93E6E0F5E0EA
S113301080818F93809109058F93E8E0F5E08081AA
S11330208F93809105058F93E4E0F5E080818F9381
S1133030DF92CF92FF92EF920E94672DC7010E9408
S1133040BE000E94130A0FB6F894DEBF0FBECDBFB8
S1133050892B09F446C069E172E082E095E00E94A0
S1133060DE103FC060E080E00E94B5008AE292E09A
S11330700E94BE0061E080E00E94B5008091FF04E0
S11330808F93EEEFF4E080818F938091FB048F9314
S1133090EAEFF4E080818F938091FD048F93ECEF4D
S11330A0F4E080818F93E8EFF4E081818F93808155
S11330B08F93DF92CF92FF92EF920E94672DC70108
S11330C00E94BE000E94130A0FB6F894DEBF0FBE22
S11330D0CDBF892B31F067E272E086EF94E00E9465
S11330E0DE103110DFCE60960FB6F894DEBF0FBE4F
S11330F0CDBFDF91CF911F910F91FF90EF90DF90A3
S1133100CF90BF90AF909F908F907F906F905F9083
S11331104F903F900895BF92CF92DF92EF92FF922B
S11331200F931F93CF93DF938AE195E00E944C1095
S1133130C82E8EE095E00E944C10D82E82E095E0D7
S11331400E944C10E82E86EF94E00E944C10F82E5A
S1133150C1E0D0E011E021E030E0AE0165E070E0D4
S113316080E090E00E94AF0AEC0160E080E00E9401
S1133170B50088E392E00E94BE009E01215031090F
S1133180012F2430310508F000E0C230D10509F4E4
S113319053C024F4C130D10551F022C1C330D1054C
S11331A009F48FC0C430D10509F4D0C019C1612F0E
S11331B080E00E94B5008BE092E00E94BE008AE1AC
S11331C095E00E944C10882349F0612F85E00E940D
S11331D0B50086E393E00E94BE0008C0612F85E03D
S11331E00E94B5008EE393E00E94BE000E94130A81
S11331F0892B09F4F5C0BC2CB126CC2061F08AE1FE
S113320095E00E942D10612F85E00E94B5008EE3A9
S113321093E00E94BE00BB2009F4DBC08AE195E084
S11332200E943D10612F85E00E94B50086E393E083
S11332300E94BE00CB2CD4C0612F80E00E94B50058
S113324088E092E00E94BE008EE095E00E944C105F
S1133250882349F0612F85E00E94B50086E393E05E
S11332600E94BE0008C0612F85E00E94B5008EE375
S113327093E00E94BE000E94130A892B09F4B0C097
S1133280BD2CB126DD2061F08EE095E00E942D106A
S1133290612F85E00E94B5008EE393E00E94BE009A
S11332A0BB2009F498C08EE095E00E943D10612F88
S11332B085E00E94B50086E393E00E94BE00DB2C0B
S11332C08FC0612F80E00E94B50089E192E00E94E6
S11332D0BE0082E095E00E944C10882349F0612FE3
S11332E085E00E94B50086E393E00E94BE0008C01A
S11332F0612F85E00E94B5008EE393E00E94BE003A
S11333000E94130A892B09F46BC0BE2CB126EE204F
S113331061F082E095E00E942D10612F85E00E940B
S1133320B5008EE393E00E94BE00BB2009F455C0B3
S113333082E095E00E943D10612F85E00E94B50077
S113334086E393E00E94BE00EB2C4AC0612F80E02C
S11333500E94B50087E292E00E94BE0086EF94E0EE
S11333600E944C10882349F0612F85E00E94B5002B
S113337086E393E00E94BE0008C0612F85E00E94AE
S1133380B5008EE393E00E94BE000E94130A892BCD
S113339039F1BF2CB126FF2061F086EF94E00E9442
S11333A02D10612F85E00E94B5008EE393E00E940A
S11333B0BE00BB20A1F086EF94E00E943D10612F77
S11333C085E00E94B50086E393E00E94BE00FB2CDA
S11333D007C0CB2C05C0DB2C03C0EB2C01C0FB2C9D
S11333E00111B9CEDF91CF911F910F91FF90EF9012
S11333F0DF90CF90BF9008952F923F924F925F92AB
S11334006F927F928F929F92AF92BF92CF92DF92F0
S1133410EF92FF920F931F93CF93DF93CDB7DEB755
S113342060970FB6F894DEBF0FBECDBF01E010E089
S11334300F2EF6E18F2EF5E09F2EF02D0F2EF2E1E8
S1133440AF2EF5E0BF2EF02D0F2EF4E16F2EF5E038
S11334507F2EF02D0F2EF0E14F2EF5E05F2EF02D94
S11334600F2EF4E52F2EF2E03F2EF02DCE01019623
S11334706C0121E030E0A80165E070E080E090E0BC
S11334800E94AF0A8C0160E080E00E94B500C80190
S1133490019731E020E0049708F030E0E32EF22EAB
S11334A002301105D9F124F40130110551F0C0C0E6
S11334B00330110509F45DC00430110509F48AC014
S11334C0B7C060E080E00E94B500E2E2F5E08181EF
S11334D08F9380818F93EEE1F5E081818F938081DA
S11334E08F93E0E2F5E081818F9380818F93ECE10B
S11334F0F5E081818F9380818F9381E492E09F93A3
S11335008F93DF92CF920E94672DC6010E94BE0066
S11335100FB6F894DEBF0FBECDBF8AC060E080E076
S11335200E94B500F40181818F9380818F93D5012E
S113353011968C9111978F938C918F93F3018181C4
S11335408F9380818F93D20111968C9111978F93D1
S11335508C918F933F922F92DF92CF920E94672D8E
S1133560C6010E94BE000FB6F894DEBF0FBECDBFE9
S11335705FC060E080E00E94B50080910B058F93EE
S1133580AAE0B5E08C918F93809107058F93E6E0D4
S1133590F5E080818F93809109058F93A8E0B5E0D1
S11335A08C918F93809105058F93E4E0F5E0808101
S11335B08F93A7E6B2E0BF93AF93DF92CF920E94BE
S11335C0672DC6010E94BE000FB6F894DEBF0FBE81
S11335D0CDBF2EC060E080E00E94B5008091FF0462
S11335E08F93AEEFB4E08C918F938091FB048F9313
S11335F0EAEFF4E080818F93ECEFF4E081818F9324
S113360080818F93E8EFF4E081818F9380818F93A1
S11336108AE792E09F938F93DF92CF920E94672D67
S1133620C6010E94BE000FB6F894DEBF0FBECDBF28
S1133630EA94EF2809F41DCF60960FB6F894DEBF24
S11336400FBECDBFDF91CF911F910F91FF90EF90EF
S1133650DF90CF90BF90AF909F908F907F906F90AE
S11336605F904F903F902F9008958AE090E0909360
S11336701D0580931C0524E130E030931F05209341
S11336801E05109221051092200510922305109218
S11336902205909311058093100583E190E09093A7
S11336A01305809312058EE190E0909315058093A5
S11336B01405909317058093160588E090E0909385
S11336C005058093040586E190E0909307058093B7
S11336D00605109209051092080510920B05109228
S11336E00A0582E090E09093F9048093F80487E15E
S11336F090E09093FB048093FA041092FD041092DE
S1133700FC041092FF041092FE0460E080E00E942A
S1133710B5008DE892E00E94BE002FED8CE193E0AD
S1133720215080409040E1F700C0000061E081E05A
S11337300E945C0008958AE195E00E944C10882361
S113374049F060E080E00E94B50088E992E00E94C0
S1133750BE0008C060E080E00E94B50082EA92E00A
S11337600E94BE008EE095E00E944C10882349F030
S113377060E089E00E94B5008CEA92E00E94BE00FD
S113378008C060E089E00E94B50086EB92E00E94E8
S1133790BE0082E095E00E944C10882349F061E06D
S11337A080E00E94B50080EC92E00E94BE0008C058
S11337B061E080E00E94B5008AEC92E00E94BE00C5
S11337C086EF94E00E944C10882349F061E089E080
S11337D00E94B50084ED92E00E94BE00089561E06D
S11337E089E00E94B5008EED92E00E94BE0008952B
S11337F0FC011082118208950F931F93CF93DF93DE
S113380020918405309185058091860590918705E6
S11338102817390709F4D8C080912705811125C0DC
S113382080912805811121C081E495E00E947101F5
S11338308B3569F481E080932805109227058BE588
S11338408093D30510922A05109229050EC0883260
S113385061F41092280581E08093270588E2809323
S1133860DE0510922A0510922905809128058823E7
S113387009F441C080912705811142C0209184053B
S11338803091850580918605909187052817390721
S113389009F49AC07BC088EE92E00E94C40183EDD3
S11338A095E00E94F81B10922A05109229051092A7
S11338B0280521C081E495E00E9471018D35C1F491
S11338C010922805CD52DA4F88830E5F1F4F0B30BC
S11338D0110548F4F801ED52FA4F8EED95E011927E
S11338E0E817F907E1F710922A051092290503C099
S11338F0CD52DA4F888380912705882309F464C068
S113390080912805811160C020918405309185053E
S113391080918605909187052817390709F454C0CA
S113392044C080E093E00E94C4018EED95E00E94C3
S1133930F81B10922A05109229051092270544C0FD
S113394081E495E00E9471018932E1F481E0809381
S1133950260510922705CD52DA4F89E28B870E5F38
S11339601F4F0B30110548F4F801E252FA4F89EE6B
S113397095E01192E817F907E1F710922A051092E1
S1133980290522C0CD52DA4F8B871EC0009129052C
S113399010912A05E8012196D0932A05C0932905A0
S11339A0CA30D10508F077CF85CF00912905109151
S11339B02A05E8012196D0932A05C0932905CA3027
S11339C0D10508F4BDCFADCFDF91CF911F910F91F9
S11339D00895AF92BF92CF92DF92EF92FF920F932E
S11339E01F93CF93DF93CDB7DEB7A7970FB6F894A5
S11339F0DEBF0FBECDBFCE0101960E94F81B109210
S1133A0026054AE050E068E472E0CE014A960E943E
S1133A105B2FBE01665E7F4F83ED95E00E94562DBD
S1133A20892B09F0E0C24AE050E062E572E0CE0181
S1133A304A960E945B2FBE01665E7F4F8EED95E035
S1133A400E94562D892B29F58AE195E00E943D10AC
S1133A508AE195E00E944C108823D9F08EED95E020
S1133A609F938F9383ED95E09F938F9387E193E0EA
S1133A709F938F938E010F5F1F4F1F930F930E948D
S1133A80672DC8010E94C4010FB6F894DEBF0FBEB3
S1133A90CDBF4AE050E06CE572E0CE014A960E9448
S1133AA05B2FBE01665E7F4F8EED95E00E94562D22
S1133AB0892B29F58EE095E00E943D108EE095E07B
S1133AC00E944C108823D9F08EED95E09F938F933C
S1133AD083ED95E09F938F938EE193E09F938F9373
S1133AE08E010F5F1F4F1F930F930E94672DC80114
S1133AF00E94C4010FB6F894DEBF0FBECDBF4AE0EA
S1133B0050E066E672E0CE014A960E945B2FBE0149
S1133B10665E7F4F8EED95E00E94562D892B29F528
S1133B2082E095E00E943D1082E095E00E944C10F6
S1133B308823D9F08EED95E09F938F9383ED95E0E4
S1133B409F938F938EE193E09F938F938E010F5FEA
S1133B501F4F1F930F930E94672DC8010E94C40139
S1133B600FB6F894DEBF0FBECDBF4AE050E060E769
S1133B7072E0CE014A960E945B2FBE01665E7F4FC3
S1133B808EED95E00E94562D892B29F586EF94E061
S1133B900E943D1086EF94E00E944C108823D9F0D7
S1133BA08EED95E09F938F9383ED95E09F938F9394
S1133BB08EE193E09F938F938E010F5F1F4F1F93AE
S1133BC00F930E94672DC8010E94C4010FB6F89498
S1133BD0DEBF0FBECDBF4AE050E06AE772E0CE011F
S1133BE04A960E945B2FBE01665E7F4F8EED95E084
S1133BF00E94562D892B29F58AE195E00E942D100B
S1133C008AE195E00E944C1081111BC08EED95E075
S1133C109F938F9383ED95E09F938F9387E193E038
S1133C209F938F938E010F5F1F4F1F930F930E94DB
S1133C30672DC8010E94C4010FB6F894DEBF0FBE01
S1133C40CDBF4AE050E064E872E0CE014A960E949B
S1133C505B2FBE01665E7F4F8EED95E00E94562D70
S1133C60892B29F58EE095E00E942D108EE095E0D9
S1133C700E944C1081111BC08EED95E09F938F9391
S1133C8083ED95E09F938F938EE193E09F938F93C1
S1133C908E010F5F1F4F1F930F930E94672DC80162
S1133CA00E94C4010FB6F894DEBF0FBECDBF4AE038
S1133CB050E06EE872E0CE014A960E945B2FBE018E
S1133CC0665E7F4F8EED95E00E94562D892B29F577
S1133CD082E095E00E942D1082E095E00E944C1055
S1133CE081111BC08EED95E09F938F9383ED95E03A
S1133CF09F938F938EE193E09F938F938E010F5F39
S1133D001F4F1F930F930E94672DC8010E94C40187
S1133D100FB6F894DEBF0FBECDBF4AE050E068E9AD
S1133D2072E0CE014A960E945B2FBE01665E7F4F11
S1133D308EED95E00E94562D892B29F586EF94E0AF
S1133D400E942D1086EF94E00E944C1081111BC03C
S1133D508EED95E09F938F9383ED95E09F938F93E2
S1133D608EE193E09F938F938E010F5F1F4F1F93FC
S1133D700F930E94672DC8010E94C4010FB6F894E6
S1133D80DEBF0FBECDBF4AE050E060EC72E0CE0172
S1133D904A960E945B2FBE01665E7F4F8EED95E0D2
S1133DA00E94562D892B59F58AE195E00E942D1029
S1133DB08EE095E00E942D1082E095E00E942D1087
S1133DC086EF94E00E942D108EED95E09F938F93E3
S1133DD083ED95E09F938F938EE193E09F938F9370
S1133DE08E010F5F1F4F1F930F930E94672DC80111
S1133DF00E94C4010FB6F894DEBF0FBECDBF4AE0E7
S1133E0050E06AEC72E0CE014A960E945B2FBE013C
S1133E10665E7F4F8EED95E00E94562D892B59F5F5
S1133E208AE195E00E943D108EE095E00E943D10ED
S1133E3082E095E00E943D1086EF94E00E943D10E0
S1133E408EED95E09F938F9383ED95E09F938F93F1
S1133E508EE193E09F938F938E010F5F1F4F1F930B
S1133E600F930E94672DC8010E94C4010FB6F894F5
S1133E70DEBF0FBECDBF4AE050E062EA72E0CE0181
S1133E804A960E945B2FBE01665E7F4F8EED95E0E1
S1133E900E94562D892B69F582E090E090932505C8
S1133EA080932405909319058093180590930D052C
S1133EB080930C0590930105809300058EED95E0A9
S1133EC09F938F9383ED95E09F938F938EE193E07F
S1133ED09F938F938E010F5F1F4F1F930F930E9429
S1133EE0672DC8010E94C4010FB6F894DEBF0FBE4F
S1133EF0CDBF4AE050E06CEA72E0CE014A960E94DF
S1133F005B2FBE01665E7F4F8EED95E00E94562DBD
S1133F10892B69F581E090E0909325058093240531
S1133F20909319058093180590930D0580930C05C3
S1133F3090930105809300058EED95E09F938F93F8
S1133F4083ED95E09F938F938EE193E09F938F93FE
S1133F508E010F5F1F4F1F930F930E94672DC8019F
S1133F600E94C4010FB6F894DEBF0FBECDBF4AE075
S1133F7050E066EB72E0CE014A960E945B2FBE01D0
S1133F80665E7F4F8EED95E00E94562D892B59F584
S1133F901092250510922405109219051092180507
S1133FA010920D0510920C05109201051092000557
S1133FB08EED95E09F938F9383ED95E09F938F9380
S1133FC087E193E09F938F938E010F5F1F4F1F93A1
S1133FD00F930E94672DC8010E94C4010FB6F89484
S1133FE0DEBF0FBECDBF4AE050E064E372E0CE0115
S1133FF04A960E945B2FBE01665E7F4F83ED95E07B
S11340000E94562D892B09F05EC08091E1058A3308
S113401009F059C08091E4058A3309F054C08091B5
S1134020DF058EA38091E0058FA3CE0186960E94C2
S1134030382D8C018091E2058EA38091E3058FA336
S1134040CE0186960E94382D7C018091E5058EA3D1
S11340508091E6058FA3CE0186960E94382D9C019F
S1134060A701B80188EE94E00E942C1588EE94E034
S11340700E949214F82EE92E88EE94E00E94841493
S1134080182F092F88EE94E00E947614EF92FF9285
S11340900F931F939F938F93CE014A969F938F9371
S11340A084E293E09F938F938E010F5F1F4F1F93C2
S11340B00F930E94672DC8010E94C4010FB6F894A3
S11340C0DEBF0FBECDBF4AE050E060E272E0CE0139
S11340D04A960E945B2FBE01665E7F4F83ED95E09A
S11340E00E94562D892B09F078C08091E1058A330E
S11340F009F073C08091E4058A3309F06EC08091A1
S1134100DF058EA38091E0058FA3CE0186960E94E1
S1134110382D8C018091E2058EA38091E3058FA355
S1134120CE0186960E94382D7C018091E5058EA3F0
S11341308091E6058FA3CE0186960E94382D9C01BE
S11341404FEF409FC001419F900D1124E4E6F0E041
S1134150BF010E949D2CC62EA72E429FC001439FE3
S1134160900D1124BF010E949D2CD62EB72EABE1D9
S1134170B4E0CC921196AC92CCBE4E9DC0014F9D42
S1134180900D1124BF010E949D2C70931E04609316
S11341901D047BBD6ABDEFE1F4E0D082B182D3BCE3
S11341A03F932F93FF92EF921F930F93CE014A9662
S11341B09F938F9384E293E09F938F938E010F5F7D
S11341C01F4F1F930F930E94672DC8010E94C401C3
S11341D00FB6F894DEBF0FBECDBFA7960FB6F89406
S11341E0DEBF0FBECDBFDF91CF911F910F91FF9026
S11341F0EF90DF90CF90BF90AF900895892B41F45A
S113420061E081E00E945C0088EE94E00E948015E9
S1134210089582309105D1F02CF4009749F001976C
S113422071F0089583309105C1F00497E9F0089581
S113423061E081E00E945C000E941517089561E02E
S113424081E00E945C000E948B18089561E081E087
S11342500E945C000E949A16089561E081E00E9429
S11342605C000E94FC19089561E081E00E945C00FA
S11342700E94351B08958730910508F08FC0FC011A
S1134280E65DFF4F0C94B12C61E081E00E945C007C
S113429084E094E00E94780260E080E00E94B5002F
S11342A082E393E00E94BE002FE78AE196E021506A
S11342B080409040E1F700C00000089561E081E093
S11342C00E945C0084E094E00E94600360E080E06F
S11342D00E94B5008AE393E00E94BE002FE78AE1C2
S11342E096E0215080409040E1F700C0000008951E
S11342F061E081E00E945C0084E094E00E94DB0ABB
S1134300089561E081E00E945C0084E094E00E94F2
S1134310C80C089561E081E00E945C0084E094E0B0
S11343200E94BD0E089561E081E00E945C000E943D
S1134330130A892B99F510922B0584E094E00E94CE
S11343406A0A80912B058823C1F3089561E081E016
S11343500E945C000E94130A892BE1F460E080E073
S11343600E94B50082E493E00E94BE002FED8CE130
S113437093E0215080409040E1F700C0000010928B
S11343802B0560E084E094E00E947A0380912B0581
S11343908823B9F361E081E00E945C0008958F9264
S11343A09F92AF92BF92CF92DF92EF92FF920F93C0
S11343B01F93CF93DF93CDB7DEB760970FB6F89412
S11343C0DEBF0FBECDBF8230910509F4DDC034F4E9
S11343D0009761F0019709F470C0FEC18330910524
S11343E009F445C1049709F4B5C1F6C161E081E05F
S11343F00E945C000E94130A892B09F059C0809125
S11344009B041F928F9380919A041F928F938091A3
S113441095041F928F93809194041F928F938FE43D
S113442093E09F938F938E010F5F1F4F1F930F9302
S11344300E94672D60E080E00E94B500C8010E94E0
S1134440BE0010922B050FB6F894DEBF0FBECDBF91
S11344500F2EF6EDAF2EF4E0BF2EF02DCC24C39436
S1134460D12C0F2EF8EDEF2EF4E0FF2EF02D03E00B
S113447010E081E994E00E9481073FEB47E289E084
S1134480315040408040E1F700C0000081E994E0F1
S11344900E948A07F501D182C082F701118300834B
S11344A081E994E00E94431380912B05882309F34A
S11344B061E081E00E945C008FC161E081E00E94C4
S11344C05C000E94130A892B09F059C080914404AE
S11344D01F928F93809143041F928F9380913E0487
S11344E01F928F9380913D041F928F938FE493E0EA
S11344F09F938F938E010F5F1F4F1F930F930E9403
S1134500672D60E080E00E94B500C8010E94BE00F3
S113451010922B050FB6F894DEBF0FBECDBF0F2E41
S1134520FFE7AF2EF4E0BF2EF02DCC24C394D12CA2
S11345300F2EF1E8EF2EF4E0FF2EF02D03E010E053
S11345408AE394E00E9481073FEB47E289E031501F
S113455040408040E1F700C000008AE394E00E94FC
S11345608A07F501D182C082F701118300838AE3AF
S113457094E00E94431380912B05882309F361E0A2
S113458081E00E945C0028C161E081E00E945C003F
S113459060E080E00E94B5008BE593E00E94BE00DD
S11345A00E945009FFE32DE033E0F15020403040F9
S11345B0E1F700C000000197E1F568E375E081E9E7
S11345C094E00E94740781E08093DE0461E00E941D
S11345D05C0060E080E00E94B5008AE693E00E94FF
S11345E0BE0080919B041F928F9380919A041F9226
S11345F08F93809195041F928F93809194041F92BE
S11346008F938FE493E09F938F938E010F5F1F4FDF
S11346101F930F930E94672D61E080E00E94B50014
S1134620C8010E94BE000FB6F894DEBF0FBECDBF16
S113463014C068E375E081E994E00E947407109265
S1134640DE0461E081E00E945C0060E080E00E94A2
S1134650B50083E793E00E94BE009FEFE4E3FCE033
S11346609150E040F040E1F700C00000B5C061E0C7
S113467081E00E945C0060E080E00E94B5008CE76D
S113468093E00E94BE000E9450092FE33DE043E006
S1134690215030404040E1F700C000000197E1F5AF
S11346A068E375E08AE394E00E94740781E08093F4
S11346B0870461E00E945C0060E080E00E94B50035
S11346C08BE893E00E94BE00809144041F928F9374
S11346D0809143041F928F9380913E041F928F9385
S11346E080913D041F928F938FE493E09F938F9367
S11346F08E010F5F1F4F1F930F930E94672D61E080
S113470080E00E94B500C8010E94BE000FB6F89474
S1134710DEBF0FBECDBF14C068E375E081E994E04D
S11347200E9474071092870461E081E00E945C009B
S113473060E080E00E94B50083E793E00E94BE0041
S11347409FEFE4E3FCE09150E040F040E1F700C06B
S1134750000042C061E081E00E945C000E94130AF4
S1134760892BD1F510922B050F2EF6ED8F2EF4E048
S11347709F2EF02D0F2EF8EDAF2EF4E0BF2EF02D6E
S11347800F2EFFE7CF2EF4E0DF2EF02DEE24E3947E
S1134790F12C01E814E0F40111821082F501118278
S11347A01082F601F182E082F8011182108281E91F
S11347B094E00E94DB138AE394E00E94DB13FFED94
S11347C02CE133E0F15020403040E1F700C000001C
S11347D080912B058823F9F260960FB6F894DEBF1A
S11347E00FBECDBFDF91CF911F910F91FF90EF903E
S11347F0DF90CF90BF90AF909F908F9008958130BD
S1134800910571F01CF4892B39F0089582309105DB
S113481059F0039769F00895CB010E94FE20089592
S1134820CB010E9409210895CB010E943B210895E8
S1134830CB010E94CF210895CF93DF93CDB7DEB78C
S113484060970FB6F894DEBF0FBECDBF80913005E0
S1134850909131058230910509F489C034F40097B0
S113486061F0019709F446C038C18330910509F419
S1134870BBC0049709F4F5C030C160E080E00E9439
S1134880B500609130057091310562957295707F25
S11348907627607F762760547E4F40E150E0CE015A
S11348A001960E945B2FCE0101960E94BE0061E03A
S11348B080E00E94B5006091670070916800629585
S11348C07295707F7627607F762760567E4F40E131
S11348D050E0CE0101960E945B2FCE0101960E940A
S11348E0BE0061E08DE00E94B50084E993E00E947F
S11348F0BE00F3C060E080E00E94B5006091300526
S11349007091310562957295707F7627607F762766
S113491060547E4F40E150E0CE0101960E945B2F2F
S1134920CE0101960E94BE0061E080E00E94B500C5
S1134930609167007091680062957295707F762728
S1134940607F7627605C7E4F40E150E0CE010196A7
S11349500E945B2FCE0101960E94BE0061E08DE0B3
S11349600E94B50084E993E00E94BE00B6C060E0F6
S113497080E00E94B5006091300570913105629528
S11349807295707F7627607F762760547E4F40E172
S113499050E0CE0101960E945B2FCE0101960E9449
S11349A0BE0061E080E00E94B500609167007091F4
S11349B0680062957295707F7627607F76276054D1
S11349C07F4F40E150E0CE0101960E945B2FCE0163
S11349D001960E94BE0061E08DE00E94B50084E96A
S11349E093E00E94BE0079C060E080E00E94B500C0
S11349F0609130057091310562957295707F7627CC
S1134A00607F762760547E4F40E150E0CE010196EE
S1134A100E945B2FCE0101960E94BE0061E080E0FF
S1134A200E94B5006091670070916800629572956C
S1134A30707F7627607F7627605A7F4F40E150E091
S1134A40CE0101960E945B2FCE0101960E94BE000A
S1134A5061E08DE00E94B50084E993E00E94BE000D
S1134A603CC060E080E00E94B50060913005709128
S1134A70310562957295707F7627607F7627605442
S1134A807E4F40E150E0CE0101960E945B2FCE01A3
S1134A9001960E94BE0061E080E00E94B500609132
S1134AA067007091680062957295707F7627607FC9
S1134AB076276050704040E150E0CE0101960E949C
S1134AC05B2FCE0101960E94BE0061E08DE00E9442
S1134AD0B50084E993E00E94BE0060960FB6F89496
S1134AE0DEBF0FBECDBFDF91CF9108958091300519
S1134AF09091310582309105D1F02CF4009749F062
S1134B00019771F08EC083309105C1F00497E9F0EC
S1134B1088C081E090E090932F0580932E0581C09A
S1134B2085E090E090932F0580932E057AC087E06E
S1134B3090E090932F0580932E0573C085E090E05C
S1134B4090932F0580932E056CC085E090E09093A0
S1134B502F0580932E0565C00E941C240E94300AF4
S1134B60892BC1F061E081E00E945C0080916700C4
S1134B70909168000196909368008093670020915B
S1134B802E0530912F052817390724F41092680058
S1134B90109267000E944D0A892BB9F061E081E010
S1134BA00E945C0080916700909168000197909347
S1134BB0680080936700992344F480912E059091B6
S1134BC02F0590936800809367000E94130A892B35
S1134BD041F1209167003091680080912E059091F9
S1134BE02F052817390779F461E081E00E945C0001
S1134BF060E080E00E94B50081E080932C0561E0D4
S1134C000E945C000EC061E081E00E945C00609143
S1134C1067007091680080913005909131050E9481
S1134C20FF2380912C05882309F496CF0895CF9310
S1134C30DF93CDB7DEB760970FB6F894DEBF0FBE33
S1134C40CDBF209130053091310580916500909160
S1134C5066002817390709F039C088E10FB6F894BF
S1134C6081BD11BC0FBE60E080E00E94B500609180
S1134C7030057091310562957295707F7627607F5B
S1134C80762760547E4F40E150E0CE0101960E94A9
S1134C905B2FCE0101960E94BE0061E080E00E947D
S1134CA0B50040E150E060EC71E0CE0101960E9455
S1134CB05B2FCE0101960E94BE0060E08EE00E9450
S1134CC0B50088E993E00E94BE0042C088E10FB6B7
S1134CD0F89481BD11BC0FBE60E080E00E94B50075
S1134CE0609130057091310562957295707F7627D9
S1134CF0607F762760547E4F40E150E0CE010196FC
S1134D000E945B2FCE0101960E94BE0061E080E00C
S1134D100E94B500609130057091310562957295DD
S1134D20707F7627607F762760537E4F40E150E0A6
S1134D30CE0101960E945B2FCE0101960E94BE0017
S1134D4060E08EE00E94B50088E993E00E94BE0016
S1134D5060960FB6F894DEBF0FBECDBFDF91CF9142
S1134D600895CF93C8E17AC00E9417260FB6F8942D
S1134D70C1BD11BC0FBE0E94300A892B31F161E024
S1134D8081E00E945C00809130059091310501968C
S1134D909093310580933005992344F48091650004
S1134DA090916600909331058093300520913005F1
S1134DB030913105809165009091660082179307C8
S1134DC024F410923105109230050E944D0A892B6B
S1134DD031F161E081E00E945C00809130059091A6
S1134DE0310501979093310580933005992344F45C
S1134DF08091650090916600909331058093300511
S1134E0020913005309131058091650090916600C4
S1134E108217930724F410923105109230050E94F2
S1134E20130A892BD9F061E081E00E945C001092A2
S1134E3068001092670010922C0520913005309183
S1134E40310580916500909166002817390721F497
S1134E5081E08093640002C00E9476258091640002
S1134E60882309F481CFCF910895AF92BF92CF9256
S1134E70DF92EF92FF920F931F93CF93DF9388EE0D
S1134E8094E00E94FF14892B09F480C040E050E0B4
S1134E9063E070E088EE94E00E94A01481E090E06A
S1134EA09093D7048093D6041092D9041092D80416
S1134EB09093800480937F0488E090E09093820430
S1134EC08093810481E994E00E948A0781E994E057
S1134ED00E9443138AE394E00E948A078AE394E0E1
S1134EE00E9443138AE394E00E94810781E0809347
S1134EF0930480933C0488EE94E00E948414EC01B3
S1134F0088EE94E00E947614AE01BC0184E094E043
S1134F100E94530688EE94E00E948414EC0188EE0B
S1134F2094E00E947614AE01BC018AE195E00E94EF
S1134F305A1088EE94E00E948414EC0188EE94E008
S1134F400E947614AE01BC018EE095E00E945A10D6
S1134F5088EE94E00E948414EC0188EE94E00E94B0
S1134F607614AE01BC0182E095E00E945A1088EEEE
S1134F7094E00E948414EC0188EE94E00E9476147C
S1134F80AE01BC0186EF94E00E945A108091260580
S1134F90882319F00E94E91C02C00E94FC1B839B19
S1134FA01DC080912D05811172C018C086EC93E05C
S1134FB00E94C40183ED95E00E94C40188EC93E053
S1134FC00E94C4018EED95E00E94C4010E949B1BC7
S1134FD0849B04C061E081E00E945C00849BE6CF76
S1134FE082993CC00F2EF6EDAF2EF4E0BF2EF02DCB
S1134FF00F2EF8EDCF2EF4E0DF2EF02D0F2EFFE76D
S1135000EF2EF4E0FF2EF02D01E010E0C1E8D4E033
S113501061E081E00E945C00F50111821082F601DA
S113502011821082F701118300831982188281E9A9
S113503094E00E94DB138AE394E00E94DB13FFEF09
S113504023ED80E3F15020408040E1F700C00000F0
S113505061E081E00E945C00829BDACFC8E114C069
S11350600FB6F894C1BD11BC0FBE9FE7E8E3F1E0B1
S11350709150E040F040E1F700C00000839B04C081
S113508080912D05882351F0839BEACF1BC061E0FA
S113509081E00E945C0010922D05A0CF61E081E0C8
S11350A00E945C0081E080932D05109264001092B0
S11350B031051092300510926800109267000E942A
S11350C0B126E2CFDF91CF911F910F91FF90EF9026
S11350D0DF90CF90BF90AF90089585B78C6085BF67
S11350E08BB780688BBF579A7894089581B3837E79
S11350F081BB82B38C6182BB08958AE195E00E94F2
S11351002D108EE095E00E942D1082E095E00E9423
S11351102D1086EF94E00E942D100E94351B0895F7
S11351200E9472000E94720060E085E00E94B50057
S11351308BE993E00E94BE002FED8CE193E02150B7
S113514080409040E1F700C0000061E081E00E94EF
S11351505C0061E08CE00E945C0008958F929F9255
S1135160AF92BF92CF92DF92EF92FF920F931F9371
S1135170CF93DF93CDB7DEB760970FB6F894DEBF59
S11351800FBECDBF0E945009019709F08DC068E39E
S113519075E081E994E00E94740781E08093DE0465
S11351A00F2EFBE98F2EF4E09F2EF02DF401808169
S11351B01F928F930F2EFAE9AF2EF4E0BF2EF02D3D
S11351C0F50180811F928F930F2EF5E9CF2EF4E025
S11351D0DF2EF02DF60180811F928F930F2EF4E9BC
S11351E0EF2EF4E0FF2EF02DF70180811F928F93B4
S11351F08FE493E09F938F938E010F5F1F4F1F9354
S11352000F930E94672D61E081E00E945C0060E0E2
S113521080E00E94B50082EA93E00E94BE0061E053
S113522080E00E94B500C8010E94BE00F4018081A4
S11352301F928F93F50180811F928F93809199041F
S11352401F928F93809198041F928F93809197045B
S11352501F928F93809196041F928F93F601808101
S11352601F928F93F70180811F928F938FEA93E0AF
S11352709F938F931F930F930E94672D0FB6F894FB
S1135280DEBF0FBECDBFC8010E94C4019FE3EDE0A5
S1135290F3E09150E040F040E1F700C0000061E02D
S11352A081E00E945C0021C068E375E081E994E03C
S11352B00E9474071092DE0460E080E00E94B50052
S11352C089EC93E00E94BE0087ED93E00E94C40144
S11352D02FE38DE093E0215080409040E1F700C03F
S11352E0000061E081E00E945C000E945009019787
S11352F009F08DC068E375E08AE394E00E947407C6
S113530081E0809387040F2EF4E48F2EF4E09F2E27
S1135310F02DF40180811F928F930F2EF3E4AF2EB2
S1135320F4E0BF2EF02DF50180811F928F930F2E94
S1135330FEE3CF2EF4E0DF2EF02DF60180811F92E4
S11353408F930F2EFDE3EF2EF4E0FF2EF02DF701E7
S113535080811F928F938FE493E09F938F938E01AC
S11353600F5F1F4F1F930F930E94672D61E081E031
S11353700E945C0060E080E00E94B50082EA93E055
S11353800E94BE0061E080E00E94B500C8010E9456
S1135390BE00F40180811F928F93F50180811F92DA
S11353A08F93809142041F928F93809141041F92A6
S11353B08F93809140041F928F9380913F041F929A
S11353C08F93F60180811F928F93F70180811F9242
S11353D08F938FEA93E09F938F931F930F930E9471
S11353E0672D0FB6F894DEBF0FBECDBFC8010E9473
S11353F0C4019FE3EDE0F3E09150E040F040E1F7B9
S113540000C0000061E081E00E945C0021C068E30C
S113541075E08AE394E00E9474071092870460E0C8
S113542080E00E94B50081EE93E00E94BE008FEE02
S113543093E00E94C4012FE38DE093E0215080406B
S11354409040E1F700C0000061E081E00E945C0050
S11354500E94BB068CEC0E94FE0684E40E94FE06B9
S113546060960FB6F894DEBF0FBECDBFDF91CF912B
S11354701F910F91FF90EF90DF90CF90BF90AF906E
S11354809F908F90089584E094E00E94780208959C
S11354900E9490280E94BC010E9476280E947D28C8
S11354A00E94AE280E94432A0E946D2808951F92EC
S11354B00F920FB60F9211248F9381E080932B05E6
S11354C08F910F900FBE0F901F9018950E94482A3D
S11354D089EF93E00E94C4010E943527FDCF8F928B
S11354E09F92AF92BF92CF92DF92EF92FF920F936F
S11354F01F938AE895E00E942F0181E495E00E94C1
S11355002F01C12CD12C0F2EFEE1EF2EF12CF02D0A
S11355100CE010E020E030E04CE050E064E070E0AB
S11355208AE195E00E94031020E030E04CE050E076
S113553062E070E08EE095E00E94031020E030E02D
S11355404CE050E061E070E082E095E00E940310DE
S113555020E030E04CE050E060E070E086EF94E062
S11355600E94031020E030E041E050E068E375E081
S113557081E994E00E94410729E030E041E050E0F5
S113558068E375E08AE394E00E9441070F2EFBE391
S11355908F2E912CF02D0F2EF7E1AF2EB12CF02D84
S11355A0CC24C394D12C0F2EF4E1EF2EF12CF02D4A
S11355B000E010E024E130E040E050E06AE070E018
S11355C084E094E00E9445021F910F91FF90EF90B8
S11355D0DF90CF90BF90AF909F908F9008955058D8
S11355E0BB27AA270ED008C1F9D030F0FED020F096
S11355F031F49F3F11F41EF4EEC00EF4E095E7FB86
S1135600E4C0E92F0AD180F3BA176207730784074D
S1135610950718F071F49EF522C10EF4E0950B2E57
S1135620BA2FA02D0B01B90190010C01CA01A001F0
S11356301124FF27591B99F0593F50F4503E68F14B
S11356401A16F040A22F232F342F4427585FF3CF8C
S1135650469537952795A795F0405395C9F77EF45D
S11356601F16BA0B620B730B840BBAF09150A1F0A6
S1135670FF0FBB1F661F771F881FC2F70EC0BA0F2C
S1135680621F731F841F48F4879577956795B795B4
S1135690F7959E3F08F0B3CF9395880F08F09927AC
S11356A0EE0F9795879508956CD008F481E00895DE
S11356B0BCD088F09F5790F0B92F9927B751A0F02C
S11356C0D1F0660F771F881F991F1AF0BA95C9F792
S11356D012C0B13081F0C3D0B1E00895C0C0672FCB
S11356E0782F8827B85F39F0B93FCCF38695779542
S11356F06795B395D9F73EF490958095709561952B
S11357007F4F8F4F9F4F0895E89409C097FB3EF455
S113571090958095709561957F4F8F4F9F4F9923FA
S1135720A9F0F92F96E9BB279395F6958795779578
S11357306795B795F111F8CFFAF4BB0F11F460FF38
S11357401BC06F5F7F4F8F4F9F4F16C0882311F090
S113575096E911C0772321F09EE8872F762F05C0A4
S1135760662371F096E8862F70E060E02AF09A953F
S1135770660F771F881FDAF7880F9695879597F934
S11357800895990F0008550FAA0BE0E8FEEF1616CE
S11357901706E807F907C0F012161306E407F50721
S11357A098F0621B730B840B950B39F40A2661F095
S11357B0232B242B252B21F408950A2609F4A14038
S11357C0A6958FEF811D811D089597F99F6780E845
S11357D070E060E008959FEF80EC089500240A943F
S11357E01616170618060906089500240A941216B8
S11357F01306140605060895092E0394000C11F4EB
S1135800882352F0BB0F40F4BF2B11F460FF04C097
S11358106F5F7F4F8F4F9F4F089557FD9058440FF0
S1135820551F59F05F3F71F04795880F97FB991FFB
S113583061F09F3F79F087950895121613061406B8
S1135840551FF2CF4695F1DF08C016161706180645
S1135850991FF1CF86957105610508940895E89420
S1135860BB2766277727CB0197F908958ADF08F4C9
S11358708FEF08950BD0C0CFB1DF28F0B6DF18F05A
S1135880952309F0A2CFA7CF1124EACFC6DFA0F356
S1135890959FD1F3950F50E0551F629FF001729FC1
S11358A0BB27F00DB11D639FAA27F00DB11DAA1FE0
S11358B0649F6627B00DA11D661F829F2227B00D2D
S11358C0A11D621F739FB00DA11D621F839FA00DB8
S11358D0611D221F749F3327A00D611D231F849F08
S11358E0600D211D822F762F6A2F11249F5750405F
S11358F08AF0E1F088234AF0EE0FFF1FBB1F661FFA
S1135900771F881F91505040A9F79E3F510570F0B2
S11359105CCFA6CF5F3FECF3983EDCF3869577959A
S11359206795B795F795E7959F5FC1F7FE2B880FAD
S1135930911D9695879597F9089597FB072E16F470
S1135940009407D077FD09D00E94C62C07FC05D02F
S11359503EF4909581959F4F0895709561957F4F82
S11359600895EE0FFF1F0590F491E02D0994A29F76
S1135970B001B39FC001A39F700D811D1124911D1F
S1135980B29F700D811D1124911D0895AA1BBB1B8C
S113599051E107C0AA1FBB1FA617B70710F0A61B2B
S11359A0B70B881F991F5A95A9F780959095BC014C
S11359B0CD0108958F929F92AF92BF92CF92DF92C2
S11359C0EF92FF92CF93DF93EC01688179818A8112
S11359D09B81611571058105910521F464E279EDDE
S11359E08BE597E02DE133EF41E050E00E94113068
S11359F049015A019B01AC01A7EAB1E40E9430308D
S1135A006B017C01ACEEB4EFA50194010E943E3021
S1135A10C60ED71EE81EF91EF7FE06C081E0C81A9E
S1135A20D108E10880E8F80AC882D982EA82FB82B8
S1135A30C6019F77DF91CF91FF90EF90DF90CF90D9
S1135A40BF90AF909F908F9008950E94DA2C089594
S1135A5080E690E00E94DA2C0895A0E0B0E0809304
S1135A60600090936100A0936200B0936300089576
S1135A70FC0188279927E89421912032E9F3293001
S1135A8010F02E30C8F32B3241F02D3239F46894E3
S1135A9004C00E945F2D820F911D219120532A3052
S1135AA0C0F31EF4909581959F4F0895FB01DC018E
S1135AB08D91019080190110D9F3990B08957AE022
S1135AC0979F902D879F802D910D11240895AEE00E
S1135AD0B0E0EDE6FDE20C9451300D891E8986E0BC
S1135AE08C831A8309838FEF9FE79E838D83AE0196
S1135AF0475E5F4F6F89788DCE0101960E94892D94
S1135B00EF81F885E00FF11F10822E96E4E00C94EB
S1135B106D30ACE0B0E0EFE8FDE20C9443307C0182
S1135B206B018A01FC0117821682838181FFBDC14A
S1135B30CE0101964C01F7019381F60193FD859105
S1135B4093FF81916F01882309F4ABC1853239F445
S1135B5093FD859193FF81916F01853229F4B701FB
S1135B6090E00E94812FE7CF512C312C20E020328D
S1135B70A0F48B3269F030F4803259F0833269F446
S1135B8020612CC08D3239F0803339F4216026C075
S1135B902260246023C0286021C027FD27C030ED87
S1135BA0380F3A3078F426FF06C0FAE05F9E300DD5
S1135BB01124532E13C08AE0389E300D1124332E45
S1135BC020620CC08E3221F426FD6BC1206406C015
S1135BD08C3611F4206802C0883641F4F60193FD36
S1135BE0859193FF81916F018111C1CF982F9F7D82
S1135BF09554933028F40C5F1F4FFFE3F9830DC0D5
S1135C00833631F0833771F0833509F05BC022C0ED
S1135C10F801808189830E5F1F4F44244394512CE3
S1135C20540115C03801F2E06F0E711CF801A08018
S1135C30B18026FF03C0652D70E002C06FEF7FEFD7
S1135C40C5012C870E94762F2C0183012C852F7788
S1135C50222E17C03801F2E06F0E711CF801A080EB
S1135C60B18026FF03C0652D70E002C06FEF7FEFA7
S1135C70C5012C870E946B2F2C012C852068222EB5
S1135C80830123FC1BC0832D90E048165906B0F411
S1135C90B70180E290E00E94812F3A94F4CFF5019D
S1135CA027FC859127FE81915F01B70190E00E9456
S1135CB0812F31103A94F1E04F1A510841145104E4
S1135CC071F7E5C0843611F0893639F5F80127FFFC
S1135CD007C060817181828193810C5F1F4F08C06E
S1135CE060817181882777FD8095982F0E5F1F4F03
